:030000000208797A
:0C087900787FE4F6D8FD75810D020800C0
:0608450075A0057F96FE80
:10084B00E4F50AF50BC3E50B9FE50A9E501FE4F593
:10085B000CF50D050DE50D7002050CB4FBF5E50C63
:0E086B00B404F0050BE50B70DC050A80D82202
:10080000E5905403750800F5094508700375A00AC2
:10081000E50964014508700912084575A00612082B
:100820004BE50964024508700912084575A00912D4
:10083000084BE5096403450870C6120845E4F5A0B5
:0508400012084B80BB13
:00000001FF
